{
  "address": "0x2CC787Ed364600B0222361C4188308Fa8E68bA60",
  "abi": [
    {
      "inputs": [
        {
          "components": [
            {
              "internalType": "address",
              "name": "target",
              "type": "address"
            },
            {
              "internalType": "bytes",
              "name": "callData",
              "type": "bytes"
            }
          ],
          "internalType": "struct Multicall3.Call[]",
          "name": "calls",
          "type": "tuple[]"
        }
      ],
      "name": "aggregate",
      "outputs": [
        {
          "internalType": "uint256",
          "name": "blockNumber",
          "type": "uint256"
        },
        {
          "internalType": "bytes[]",
          "name": "returnData",
          "type": "bytes[]"
        }
      ],
      "stateMutability": "payable",
      "type": "function"
    },
    {
      "inputs": [
        {
          "components": [
            {
              "internalType": "address",
              "name": "target",
              "type": "address"
            },
            {
              "internalType": "bool",
              "name": "allowFailure",
              "type": "bool"
            },
            {
              "internalType": "bytes",
              "name": "callData",
              "type": "bytes"
            }
          ],
          "internalType": "struct Multicall3.Call3[]",
          "name": "calls",
          "type": "tuple[]"
        }
      ],
      "name": "aggregate3",
      "outputs": [
        {
          "components": [
            {
              "internalType": "bool",
              "name": "success",
              "type": "bool"
            },
            {
              "internalType": "bytes",
              "name": "returnData",
              "type": "bytes"
            }
          ],
          "internalType": "struct Multicall3.Result[]",
          "name": "returnData",
          "type": "tuple[]"
        }
      ],
      "stateMutability": "payable",
      "type": "function"
    },
    {
      "inputs": [
        {
          "components": [
            {
              "internalType": "address",
              "name": "target",
              "type": "address"
            },
            {
              "internalType": "bool",
              "name": "allowFailure",
              "type": "bool"
            },
            {
              "internalType": "uint256",
              "name": "value",
              "type": "uint256"
            },
            {
              "internalType": "bytes",
              "name": "callData",
              "type": "bytes"
            }
          ],
          "internalType": "struct Multicall3.Call3Value[]",
          "name": "calls",
          "type": "tuple[]"
        }
      ],
      "name": "aggregate3Value",
      "outputs": [
        {
          "components": [
            {
              "internalType": "bool",
              "name": "success",
              "type": "bool"
            },
            {
              "internalType": "bytes",
              "name": "returnData",
              "type": "bytes"
            }
          ],
          "internalType": "struct Multicall3.Result[]",
          "name": "returnData",
          "type": "tuple[]"
        }
      ],
      "stateMutability": "payable",
      "type": "function"
    },
    {
      "inputs": [
        {
          "components": [
            {
              "internalType": "address",
              "name": "target",
              "type": "address"
            },
            {
              "internalType": "bytes",
              "name": "callData",
              "type": "bytes"
            }
          ],
          "internalType": "struct Multicall3.Call[]",
          "name": "calls",
          "type": "tuple[]"
        }
      ],
      "name": "blockAndAggregate",
      "outputs": [
        {
          "internalType": "uint256",
          "name": "blockNumber",
          "type": "uint256"
        },
        {
          "internalType": "bytes32",
          "name": "blockHash",
          "type": "bytes32"
        },
        {
          "components": [
            {
              "internalType": "bool",
              "name": "success",
              "type": "bool"
            },
            {
              "internalType": "bytes",
              "name": "returnData",
              "type": "bytes"
            }
          ],
          "internalType": "struct Multicall3.Result[]",
          "name": "returnData",
          "type": "tuple[]"
        }
      ],
      "stateMutability": "payable",
      "type": "function"
    },
    {
      "inputs": [],
      "name": "getBasefee",
      "outputs": [
        {
          "internalType": "uint256",
          "name": "basefee",
          "type": "uint256"
        }
      ],
      "stateMutability": "view",
      "type": "function"
    },
    {
      "inputs": [
        {
          "internalType": "uint256",
          "name": "blockNumber",
          "type": "uint256"
        }
      ],
      "name": "getBlockHash",
      "outputs": [
        {
          "internalType": "bytes32",
          "name": "blockHash",
          "type": "bytes32"
        }
      ],
      "stateMutability": "view",
      "type": "function"
    },
    {
      "inputs": [],
      "name": "getBlockNumber",
      "outputs": [
        {
          "internalType": "uint256",
          "name": "blockNumber",
          "type": "uint256"
        }
      ],
      "stateMutability": "view",
      "type": "function"
    },
    {
      "inputs": [],
      "name": "getChainId",
      "outputs": [
        {
          "internalType": "uint256",
          "name": "chainid",
          "type": "uint256"
        }
      ],
      "stateMutability": "view",
      "type": "function"
    },
    {
      "inputs": [],
      "name": "getCurrentBlockCoinbase",
      "outputs": [
        {
          "internalType": "address",
          "name": "coinbase",
          "type": "address"
        }
      ],
      "stateMutability": "view",
      "type": "function"
    },
    {
      "inputs": [],
      "name": "getCurrentBlockDifficulty",
      "outputs": [
        {
          "internalType": "uint256",
          "name": "difficulty",
          "type": "uint256"
        }
      ],
      "stateMutability": "view",
      "type": "function"
    },
    {
      "inputs": [],
      "name": "getCurrentBlockGasLimit",
      "outputs": [
        {
          "internalType": "uint256",
          "name": "gaslimit",
          "type": "uint256"
        }
      ],
      "stateMutability": "view",
      "type": "function"
    },
    {
      "inputs": [],
      "name": "getCurrentBlockTimestamp",
      "outputs": [
        {
          "internalType": "uint256",
          "name": "timestamp",
          "type": "uint256"
        }
      ],
      "stateMutability": "view",
      "type": "function"
    },
    {
      "inputs": [
        {
          "internalType": "address",
          "name": "addr",
          "type": "address"
        }
      ],
      "name": "getEthBalance",
      "outputs": [
        {
          "internalType": "uint256",
          "name": "balance",
          "type": "uint256"
        }
      ],
      "stateMutability": "view",
      "type": "function"
    },
    {
      "inputs": [],
      "name": "getLastBlockHash",
      "outputs": [
        {
          "internalType": "bytes32",
          "name": "blockHash",
          "type": "bytes32"
        }
      ],
      "stateMutability": "view",
      "type": "function"
    },
    {
      "inputs": [
        {
          "internalType": "bool",
          "name": "requireSuccess",
          "type": "bool"
        },
        {
          "components": [
            {
              "internalType": "address",
              "name": "target",
              "type": "address"
            },
            {
              "internalType": "bytes",
              "name": "callData",
              "type": "bytes"
            }
          ],
          "internalType": "struct Multicall3.Call[]",
          "name": "calls",
          "type": "tuple[]"
        }
      ],
      "name": "tryAggregate",
      "outputs": [
        {
          "components": [
            {
              "internalType": "bool",
              "name": "success",
              "type": "bool"
            },
            {
              "internalType": "bytes",
              "name": "returnData",
              "type": "bytes"
            }
          ],
          "internalType": "struct Multicall3.Result[]",
          "name": "returnData",
          "type": "tuple[]"
        }
      ],
      "stateMutability": "payable",
      "type": "function"
    },
    {
      "inputs": [
        {
          "internalType": "bool",
          "name": "requireSuccess",
          "type": "bool"
        },
        {
          "components": [
            {
              "internalType": "address",
              "name": "target",
              "type": "address"
            },
            {
              "internalType": "bytes",
              "name": "callData",
              "type": "bytes"
            }
          ],
          "internalType": "struct Multicall3.Call[]",
          "name": "calls",
          "type": "tuple[]"
        }
      ],
      "name": "tryBlockAndAggregate",
      "outputs": [
        {
          "internalType": "uint256",
          "name": "blockNumber",
          "type": "uint256"
        },
        {
          "internalType": "bytes32",
          "name": "blockHash",
          "type": "bytes32"
        },
        {
          "components": [
            {
              "internalType": "bool",
              "name": "success",
              "type": "bool"
            },
            {
              "internalType": "bytes",
              "name": "returnData",
              "type": "bytes"
            }
          ],
          "internalType": "struct Multicall3.Result[]",
          "name": "returnData",
          "type": "tuple[]"
        }
      ],
      "stateMutability": "payable",
      "type": "function"
    }
  ],
  "transactionHash": "0x5a020f70ad6494178b4661c72676d8b6e6bde0b325fda1ec1dccb23f395b6d6b",
  "args": [],
  "numDeployments": 1,
  "solcInputHash": "2c4045da9263c8058401050467beca99",
  "bytecode": "0x608060405234801561000f575f80fd5b50610e838061001d5f395ff3fe6080604052600436106100ef575f3560e01c80634d2301cc11610087578063a8b0574e11610057578063a8b0574e1461024d578063bce38bd714610267578063c3077fa91461027a578063ee82ac5e1461028d575f80fd5b80634d2301cc146101e257806372425d9d1461021657806382ad56cb1461022857806386d516e81461023b575f80fd5b80633408e470116100c25780633408e4701461018a578063399542e91461019c5780633e64a696146101be57806342cbb15c146101d0575f80fd5b80630f28c97d146100f3578063174dea7114610114578063252dba421461013457806327e86d6e14610155575b5f80fd5b3480156100fe575f80fd5b50425b6040519081526020015b60405180910390f35b610127610122366004610a52565b6102ab565b60405161010b9190610b7c565b610147610142366004610a52565b6104d7565b60405161010b929190610b95565b348015610160575f80fd5b50437fffffffffffffffffffffffffffffffffffffffffffffffffffffffffffffffff0140610101565b348015610195575f80fd5b5046610101565b6101af6101aa366004610c1d565b610672565b60405161010b93929190610c72565b3480156101c9575f80fd5b5048610101565b3480156101db575f80fd5b5043610101565b3480156101ed575f80fd5b506101016101fc366004610c99565b73ffffffffffffffffffffffffffffffffffffffff163190565b348015610221575f80fd5b5044610101565b610127610236366004610a52565b61068d565b348015610246575f80fd5b5045610101565b348015610258575f80fd5b5060405141815260200161010b565b610127610275366004610c1d565b610833565b6101af610288366004610a52565b6109ec565b348015610298575f80fd5b506101016102a7366004610ccc565b4090565b60605f828067ffffffffffffffff8111156102c8576102c8610ce3565b60405190808252806020026020018201604052801561030d57816020015b604080518082019091525f8152606060208201528152602001906001900390816102e65790505b509250365f5b8281101561045f575f85828151811061032e5761032e610d10565b6020026020010151905087878381811061034a5761034a610d10565b905060200281019061035c9190610d3d565b6040810135958601959093506103756020850185610c99565b73ffffffffffffffffffffffffffffffffffffffff16816103996060870187610d79565b6040516103a7929190610dda565b5f6040518083038185875af1925050503d805f81146103e1576040519150601f19603f3d011682016040523d82523d5f602084013e6103e6565b606091505b506020808501919091529015158084529085013517610455577f08c379a0000000000000000000000000000000000000000000000000000000005f52602060045260176024527f4d756c746963616c6c333a2063616c6c206661696c656400000000000000000060445260845ffd5b5050600101610313565b508234146104ce576040517f08c379a000000000000000000000000000000000000000000000000000000000815260206004820152601a60248201527f4d756c746963616c6c333a2076616c7565206d69736d6174636800000000000060448201526064015b60405180910390fd5b50505092915050565b436060828067ffffffffffffffff8111156104f4576104f4610ce3565b60405190808252806020026020018201604052801561052757816020015b60608152602001906001900390816105125790505b509150365f5b82811015610668575f87878381811061054857610548610d10565b905060200281019061055a9190610de9565b92506105696020840184610c99565b73ffffffffffffffffffffffffffffffffffffffff1661058c6020850185610d79565b60405161059a929190610dda565b5f604051808303815f865af19150503d805f81146105d3576040519150601f19603f3d011682016040523d82523d5f602084013e6105d8565b606091505b508684815181106105eb576105eb610d10565b602090810291909101015290508061065f576040517f08c379a000000000000000000000000000000000000000000000000000000000815260206004820152601760248201527f4d756c746963616c6c333a2063616c6c206661696c656400000000000000000060448201526064016104c5565b5060010161052d565b5050509250929050565b4380406060610682868686610833565b905093509350939050565b6060818067ffffffffffffffff8111156106a9576106a9610ce3565b6040519080825280602002602001820160405280156106ee57816020015b604080518082019091525f8152606060208201528152602001906001900390816106c75790505b509150365f5b828110156104ce575f84828151811061070f5761070f610d10565b6020026020010151905086868381811061072b5761072b610d10565b905060200281019061073d9190610e1b565b925061074c6020840184610c99565b73ffffffffffffffffffffffffffffffffffffffff1661076f6040850185610d79565b60405161077d929190610dda565b5f604051808303815f865af19150503d805f81146107b6576040519150601f19603f3d011682016040523d82523d5f602084013e6107bb565b606091505b50602080840191909152901515808352908401351761082a577f08c379a0000000000000000000000000000000000000000000000000000000005f52602060045260176024527f4d756c746963616c6c333a2063616c6c206661696c656400000000000000000060445260645ffd5b506001016106f4565b6060818067ffffffffffffffff81111561084f5761084f610ce3565b60405190808252806020026020018201604052801561089457816020015b604080518082019091525f81526060602082015281526020019060019003908161086d5790505b509150365f5b828110156109e2575f8482815181106108b5576108b5610d10565b602002602001015190508686838181106108d1576108d1610d10565b90506020028101906108e39190610de9565b92506108f26020840184610c99565b73ffffffffffffffffffffffffffffffffffffffff166109156020850185610d79565b604051610923929190610dda565b5f604051808303815f865af19150503d805f811461095c576040519150601f19603f3d011682016040523d82523d5f602084013e610961565b606091505b5060208301521515815287156109d95780516109d9576040517f08c379a000000000000000000000000000000000000000000000000000000000815260206004820152601760248201527f4d756c746963616c6c333a2063616c6c206661696c656400000000000000000060448201526064016104c5565b5060010161089a565b5050509392505050565b5f8060606109fc60018686610672565b919790965090945092505050565b5f8083601f840112610a1a575f80fd5b50813567ffffffffffffffff811115610a31575f80fd5b6020830191508360208260051b8501011115610a4b575f80fd5b9250929050565b5f8060208385031215610a63575f80fd5b823567ffffffffffffffff811115610a79575f80fd5b610a8585828601610a0a565b90969095509350505050565b5f81518084525f5b81811015610ab557602081850181015186830182015201610a99565b505f6020828601015260207fffffffffffffffffffffffffffffffffffffffffffffffffffffffffffffffe0601f83011685010191505092915050565b5f82825180855260208086019550808260051b8401018186015f5b84811015610b6f578583037fffffffffffffffffffffffffffffffffffffffffffffffffffffffffffffffe001895281518051151584528401516040858501819052610b5b81860183610a91565b9a86019a9450505090830190600101610b0d565b5090979650505050505050565b602081525f610b8e6020830184610af2565b9392505050565b5f6040820184835260206040602085015281855180845260608601915060608160051b8701019350602087015f5b82811015610c0f577fffffffffffffffffffffffffffffffffffffffffffffffffffffffffffffffa0888703018452610bfd868351610a91565b95509284019290840190600101610bc3565b509398975050505050505050565b5f805f60408486031215610c2f575f80fd5b83358015158114610c3e575f80fd5b9250602084013567ffffffffffffffff811115610c59575f80fd5b610c6586828701610a0a565b9497909650939450505050565b838152826020820152606060408201525f610c906060830184610af2565b95945050505050565b5f60208284031215610ca9575f80fd5b813573ffffffffffffffffffffffffffffffffffffffff81168114610b8e575f80fd5b5f60208284031215610cdc575f80fd5b5035919050565b7f4e487b71000000000000000000000000000000000000000000000000000000005f52604160045260245ffd5b7f4e487b71000000000000000000000000000000000000000000000000000000005f52603260045260245ffd5b5f82357fffffffffffffffffffffffffffffffffffffffffffffffffffffffffffffff81833603018112610d6f575f80fd5b9190910192915050565b5f8083357fffffffffffffffffffffffffffffffffffffffffffffffffffffffffffffffe1843603018112610dac575f80fd5b83018035915067ffffffffffffffff821115610dc6575f80fd5b602001915036819003821315610a4b575f80fd5b818382375f9101908152919050565b5f82357fffffffffffffffffffffffffffffffffffffffffffffffffffffffffffffffc1833603018112610d6f575f80fd5b5f82357fffffffffffffffffffffffffffffffffffffffffffffffffffffffffffffffa1833603018112610d6f575f80fdfea26469706673582212200eaf0cd91de789e77508c60e0547293a26ede4f0c9830fcc4f3d1f30fab2457064736f6c63430008170033",
  "devdoc": {
    "author": "Michael Elliot <mike@makerdao.com>Joshua Levine <joshua@makerdao.com>Nick Johnson <arachnid@notdot.net>Andreas Bigger <andreas@nascent.xyz>Matt Solomon <matt@mattsolomon.dev>",
    "details": "Multicall & Multicall2 backwards-compatibleAggregate methods are marked `payable` to save 24 gas per call",
    "kind": "dev",
    "methods": {
      "aggregate((address,bytes)[])": {
        "params": {
          "calls": "An array of Call structs"
        },
        "returns": {
          "blockNumber": "The block number where the calls were executed",
          "returnData": "An array of bytes containing the responses"
        }
      },
      "aggregate3((address,bool,bytes)[])": {
        "params": {
          "calls": "An array of Call3 structs"
        },
        "returns": {
          "returnData": "An array of Result structs"
        }
      },
      "aggregate3Value((address,bool,uint256,bytes)[])": {
        "params": {
          "calls": "An array of Call3Value structs"
        },
        "returns": {
          "returnData": "An array of Result structs"
        }
      },
      "blockAndAggregate((address,bytes)[])": {
        "params": {
          "calls": "An array of Call structs"
        },
        "returns": {
          "blockHash": "The hash of the block where the calls were executed",
          "blockNumber": "The block number where the calls were executed",
          "returnData": "An array of Result structs"
        }
      },
      "getBlockHash(uint256)": {
        "params": {
          "blockNumber": "The block number"
        }
      },
      "tryAggregate(bool,(address,bytes)[])": {
        "params": {
          "calls": "An array of Call structs",
          "requireSuccess": "If true, require all calls to succeed"
        },
        "returns": {
          "returnData": "An array of Result structs"
        }
      },
      "tryBlockAndAggregate(bool,(address,bytes)[])": {
        "params": {
          "calls": "An array of Call structs"
        },
        "returns": {
          "blockHash": "The hash of the block where the calls were executed",
          "blockNumber": "The block number where the calls were executed",
          "returnData": "An array of Result structs"
        }
      }
    },
    "title": "Multicall3",
    "version": 1
  },
  "userdoc": {
    "kind": "user",
    "methods": {
      "aggregate((address,bytes)[])": {
        "notice": "Backwards-compatible call aggregation with Multicall"
      },
      "aggregate3((address,bool,bytes)[])": {
        "notice": "Aggregate calls, ensuring each returns success if required"
      },
      "aggregate3Value((address,bool,uint256,bytes)[])": {
        "notice": "Aggregate calls with a msg valueReverts if msg.value is less than the sum of the call values"
      },
      "blockAndAggregate((address,bytes)[])": {
        "notice": "Backwards-compatible with Multicall2Aggregate calls and allow failures using tryAggregate"
      },
      "getBasefee()": {
        "notice": "Gets the base fee of the given blockCan revert if the BASEFEE opcode is not implemented by the given chain"
      },
      "getBlockHash(uint256)": {
        "notice": "Returns the block hash for the given block number"
      },
      "getBlockNumber()": {
        "notice": "Returns the block number"
      },
      "getChainId()": {
        "notice": "Returns the chain id"
      },
      "getCurrentBlockCoinbase()": {
        "notice": "Returns the block coinbase"
      },
      "getCurrentBlockDifficulty()": {
        "notice": "Returns the block difficulty"
      },
      "getCurrentBlockGasLimit()": {
        "notice": "Returns the block gas limit"
      },
      "getCurrentBlockTimestamp()": {
        "notice": "Returns the block timestamp"
      },
      "getEthBalance(address)": {
        "notice": "Returns the (ETH) balance of a given address"
      },
      "getLastBlockHash()": {
        "notice": "Returns the block hash of the last block"
      },
      "tryAggregate(bool,(address,bytes)[])": {
        "notice": "Backwards-compatible with Multicall2Aggregate calls without requiring success"
      },
      "tryBlockAndAggregate(bool,(address,bytes)[])": {
        "notice": "Backwards-compatible with Multicall2Aggregate calls and allow failures using tryAggregate"
      }
    },
    "notice": "Aggregate results from multiple function calls",
    "version": 1
  },
  "storageLayout": {
    "storage": [],
    "types": null
  }
}